:100000000C9499000C94CA000C94CA000C94CA0079
:100010000C94CA000C94CA000C94CA000C94CA0038
:100020000C94CA000C94CA000C94CA000C94CA0028
:100030000C94CA000C94CA000C94CA000C94CA0018
:100040000C94CA000C94CA000C94CA000C94CA0008
:100050000C94CA000C94CA000C94CA000C94CA00F8
:100060000C94CA000C94CA000C94CA000C94CA00E8
:100070000C94CA000C94CA000C94CA000C94CA00D8
:100080000C94CA000C94CA000C94CA000C94CA00C8
:100090000C94CA000C94CA000C94CA000C94CA00B8
:1000A0000C94CA000C94CA000C94CA000C94CA00A8
:1000B0000C94CA000C94CA000C94CA000C94CA0098
:1000C0000C94CA000C94CA000C94CA000C94CA0088
:1000D0000C94CA000C94CA000C94CA000C94CA0078
:1000E0000C94CA000C94E8040C94D40A0C944B04AD
:1000F0000C942E050C94E9050C9460060C94F40AFB
:100100000C9498040C947D040C94BB060C94FC0A8B
:100110000C9486050C94EE0A0C94F60A0C9468056F
:100120000C9433070C94F20A0C9407060C94F00A12
:10013000330711241FBECFEFD1E2DEBFCDBF00E0F9
:100140000CBF12E0A0E0B2E0E6E0F4E200E00BBF9A
:1001500002C007900D92A434B107D9F722E0A4E4BD
:10016000B2E001C01D92AD3DB207E1F711E0C2E37C
:10017000D1E000E006C022970109FE010BBF0E94FA
:10018000C210C033D10780E00807A9F70E944A0BCC
:100190000C9401120C9400006F927F928F929F92A8
:1001A000AF92BF92CF92DF92EF92FF920F931F9385
:1001B000CF93DF93C0E1D7E20F2EF4E6EF2EF2E00B
:1001C000FF2EF02D09E011E00F2EF0ECAF2EB12C38
:1001D000F02D0F2EF6EC8F2E912CF02D0F2EF8EC2B
:1001E000CF2ED12CF02D0F2EFEEC6F2E712CF02D7A
:1001F00080916302882311F180914402882331F0B9
:10020000F7018081833011F08C3051F4F701808147
:1002100090E02091BD023091BE02281739071CF4EE
:10022000109263020BC0FC01EE0FFF1FE154FD4F63
:100230000190F081E02D1995811102C0219706C02F
:10024000813011F4259702C0CC52D140F801808151
:1002500081FF13C0F601808188230CF58091630231
:10026000F3019081E82FF0E0EC59FD4F9083873146
:10027000B0F48F5F8093630212C0F5018081882300
:1002800074F480916302F4019081E82FF0E0EC595E
:10029000FD4F9083873118F48F5F809363021C16A3
:1002A0001D060CF4A5CFDF91CF911F910F91FF9008
:1002B000EF90DF90CF90BF90AF909F908F907F9006
:1002C0006F9008951092C50020E12093C400E0ECE7
:1002D000F0E080818260808396E09093C20088E1A4
:1002E0008093C1001092CD002093CC00E8ECF0E0A8
:1002F0002081226020839093CA008093C9000895D2
:100300008DE794E09093C0028093BF0288E994E067
:100310009093C2028093C1028BE494E09093C40254
:100320008093C3028EE295E09093C6028093C5024B
:100330009093C8028093C70288EE94E09093CA021B
:100340008093C90288E695E09093CC028093CB021B
:1003500086E895E09093CE028093CD0289EE95E0F9
:100360009093D0028093CF0287E096E09093D202E0
:100370008093D10280E696E09093D4028093D302DA
:100380008BEB96E09093D6028093D50284ED9AE0B1
:100390009093D8028093D7028CE090E09093BE02B5
:1003A0008093BD028EEE9AE09093B2028093B102E8
:1003B00080EF9AE09093B4028093B30282EF9AE0C8
:1003C0009093B6028093B50284EF9AE09093B802BE
:1003D0008093B70286EF9AE09093BA028093B902B5
:1003E0008CEF9AE09093BC028093BB020E94620162
:1003F0000E94030B0895CF93DF932091090121FD03
:100400000AC027C0019682179307C1F1813345E7DF
:10041000940768F035C0A82FB92F50E080E090E035
:10042000E8ECF0E0CEECD0E09C012756354C408162
:10043000442344F728815F5F2D935230A9F722C0EF
:1004400001968217930701F1813345E7940768F01D
:100450001DC0A82FB92F50E080E090E0E0ECF0E064
:10046000C6ECD0E09C012756354C4081442344F72C
:1004700028815F5F2D935230A9F70AC080E009C040
:1004800080E007C0852F05C080E003C080E001C088
:10049000852FDF91CF910895CF93DF9320910901AC
:1004A00021FD0AC027C0019682179307C1F181334D
:1004B00045E7940768F035C0A82FB92F50E080E0D9
:1004C00090E0E8ECF0E0CEECD0E09C012756354C13
:1004D0004081442344F728815F5F2D935D30A9F765
:1004E00022C001968217930701F1813345E79407F3
:1004F00068F01DC0A82FB92F50E080E090E0E0EC3C
:10050000F0E0C6ECD0E09C012756354C40814423F6
:1005100044F728815F5F2D935D30A9F70AC080E022
:1005200009C080E007C0852F05C080E003C080E0DF
:1005300001C0852FDF91CF9108958091090181FF3E
:1005400013C0E8ECF0E0808185FFFDCF809161026F
:100550008093CE00E8ECF0E0808185FFFDCF8091B4
:1005600062028093CE000895E0ECF0E0808185FF88
:10057000FDCF809161028093C600E0ECF0E08081C5
:1005800085FFFDCF809162028093C6000895FC0133
:10059000DB0113968C911397808312968C9112979E
:1005A000818311968C91119782838C918383089516
:1005B000FC01808190E0982F88272181822B08956B
:1005C000FC01808190E0982F88272181822B08955B
:1005D0008FEF80936102809362020895442349F073
:1005E0004091610250E0542F442720916202422B37
:1005F00002C04FEF5FEF16161706D4F4FC01860F0A
:10060000971F78E060E021915227272F362F55233E
:100610003CF4440F551FA1E24A27A0E15A2702C02B
:10062000440F551F2150310991F7E817F90759F781
:1006300050936102409362020895CF93DF93EC01DF
:1006400041E061E070E00E94EE02809161028983E6
:10065000809162028A838091090181FF0EC0DE01D0
:1006600093E0E8ECF0E0CEECD0E0808185FFFDCFB8
:100670008D9188839150C9F70DC0DE0193E0E0ECC5
:10068000F0E0C6ECD0E0808185FFFDCF8D918883BE
:100690009150C9F7DF91CF910895CF93DF93EC018B
:1006A00041E064E070E00E94EE02809161028C8380
:1006B000809162028D838091090181FF0EC0DE016D
:1006C00096E0E8ECF0E0CEECD0E0808185FFFDCF55
:1006D0008D9188839150C9F70DC0DE0196E0E0EC62
:1006E000F0E0C6ECD0E0808185FFFDCF8D9188835E
:1006F0009150C9F7DF91CF910895FB012181FC0151
:100700002083FB012081FC012183FA012181FC016E
:100710002283FA012081FC0123830E944D03089566
:100720000E947D030895CF93DF93EC0141E06CE0DC
:1007300070E00E94EE02809161028C8780916202DB
:100740008D878091090181FF0EC0DE019EE0E8ECFB
:10075000F0E0CEECD0E0808185FFFDCF8D918883E5
:100760009150C9F70DC0DE019EE0E0ECF0E0C6EC70
:10077000D0E0808185FFFDCF8D9188839150C9F7AE
:10078000DF91CF910895CF92DF92EF92FF920F9376
:100790001F93CF93DF93FC01E701DB0111968C914E
:1007A000119780838C918183DA0111968C91119736
:1007B00082838C918383D90111968C9111978483C4
:1007C0008C918583D80111968C91119786838C9199
:1007D00087838981808788818187D60111968C9152
:1007E000119782878C918387CF010E949303DF91B9
:1007F000CF911F910F91FF90EF90DF90CF900895D0
:10080000EF92FF920F931F93CF93DF93EC017A0146
:1008100089010E94C702B701CE0104960E94C70257
:10082000B801CE0108960E94C70241E06CE070E07A
:10083000CE010E94EE02809161028C87809162025B
:100840008D878091090181FF0EC0DE019EE0E8ECFA
:10085000F0E0CEECD0E0808185FFFDCF8D918883E4
:100860009150C9F70DC0DE019EE0E0ECF0E0C6EC6F
:10087000D0E0808185FFFDCF8D9188839150C9F7AD
:10088000DF91CF911F910F91FF90EF90089540E07D
:100890000E94EE02089580916302833060F010920E
:1008A000630261E070E084E692E00E9447041092E7
:1008B000020281E0089580E008950F931F93CF9383
:1008C000DF938C01EB0184E692E00E944704F8017B
:1008D000EC0FFD1F908180916102981308C081E0A8
:1008E000218190916202291719F080E001C080E017
:1008F000DF91CF911F910F91089580916302833012
:1009000098F01092630261E070E084E692E00E9449
:100910005D04882359F080E48093640284E692E0C9
:100920000E941D0383E0089581E0089582E0089508
:10093000AF92BF92CF92DF92EF92FF920F931F93ED
:10094000809163028431C0F11092630262E170E031
:1009500084E692E00E945D04882381F1E0907302B6
:10096000F12CFE2CEE2480917202E82AF092010212
:10097000E0920002C0907502D12CDC2CCC24809136
:100980007402C82AD0926002C0925F02A12CB12CDE
:1009900001E712E02DE632E049E652E065E672E05A
:1009A00087EA92E00E94AF0F8093640284E692E0AF
:1009B0000E941D0383E003C081E001C082E01F911B
:1009C0000F91FF90EF90DF90CF90BF90AF90089580
:1009D000CF92DF92EF92FF920F931F93CF93DF930B
:1009E000809163028D3060F1109263026BE070E0E1
:1009F00084E692E00E945D04882321F1D0916D028B
:100A0000C0916E028C2F83708330F1F087EA92E000
:100A10000E94870FC0905F02D0906002E0900002B9
:100A2000F090010209E612E025E632E04C2F6D2F2E
:100A30008CE792E00E94140E0E949D0283E005C0A4
:100A400081E003C082E001C082E0DF91CF911F917D
:100A50000F91FF90EF90DF90CF900895CF92DF92AB
:100A6000EF92FF920F931F9380916302833030F1D6
:100A70001092630261E070E084E692E00E945D04FF
:100A80008823F1F00E94020B0F2EF5E4CF2EF2E046
:100A9000DF2EF02D0F2EF7E4EF2EF2E0FF2EF02DDB
:100AA00009E412E02BE432E04DE452E06FE472E03E
:100AB00084E692E00E94C30383E003C081E001C0AA
:100AC00082E01F910F91FF90EF90DF90CF900895FB
:100AD000809163028330B0F01092630261E070E0B5
:100AE00084E692E00E945D04882371F087EA92E038
:100AF0000E94870F8CE792E00E94DE0E0E949D020A
:100B000083E0089581E0089582E008958091630272
:100B10008F3008F45AC0109263026DE070E084E6F2
:100B200092E00E945D04882309F451C0209165027F
:100B30008091660290E0A0E0B0E0DC019927882770
:100B4000B22B20916802822B20916702922B809316
:100B5000590290935A02A0935B02B0935C022091D9
:100B6000690280916A0290E0A0E0B0E0DC01992780
:100B70008827B22B20916C02822B20916B02922B42
:100B80008093550290935602A0935702B093580257
:100B900020916D0280916E0290E0A0E0B0E0DC0157
:100BA00099278827B22B20917002822B20916F0207
:100BB000922B8093510290935202A0935302B093D0
:100BC00054020E949D0283E0089581E0089582E02E
:100BD0000895809163028330B0F01092630261E067
:100BE00070E084E692E00E945D04882371F021E5C4
:100BF00032E045E552E069E572E084E692E00E9469
:100C0000000483E0089581E0089582E00895AF92A2
:100C1000BF92CF92DF92EF92FF920F931F9380913A
:100C20006302843008F440C01092630262E070E016
:100C300084E692E00E945D048823C1F18091650200
:100C40008823B1F0AA24A394B12CC12CD12CE12C7F
:100C5000F12C00E010E020E030E040E050E060E007
:100C600070E087EA92E00E94AF0F8093640216C0A2
:100C70006894AA24A1F8B12CC12CD12CE12CF12C20
:100C800000E010E020E030E040E050E060E070E0A4
:100C900087EA92E00E94AF0F8093640284E692E0BC
:100CA0000E941D0383E003C081E001C082E01F9128
:100CB0000F91FF90EF90DF90CF90BF90AF9008958D
:100CC000AF92BF92CF92DF92EF92FF920F931F935A
:100CD00080916302843008F442C01092630262E0A3
:100CE00070E084E692E00E945D048823D1F1809157
:100CF00065028823C1F00F2EF3E0AF2EB12CF02D4A
:100D0000C12CD12CE12CF12C00E010E020E030E0EF
:100D100040E050E060E070E087EA92E00E94AF0FB0
:100D20008093640216C06894AA24A2F8B12CC12C46
:100D3000D12CE12CF12C00E010E020E030E040E08C
:100D400050E060E070E087EA92E00E94AF0F80938D
:100D5000640284E692E00E941D0383E003C081E008
:100D600001C082E01F910F91FF90EF90DF90CF9034
:100D7000BF90AF900895AF92BF92CF92DF92EF9263
:100D8000FF920F931F9380916302843008F443C055
:100D90001092630262E070E084E692E00E945D04DB
:100DA0008823D9F1809165028823C1F00F2EF5E0E8
:100DB000AF2EB12CF02DC12CD12CE12CF12C00E068
:100DC00010E020E030E040E050E060E070E087EAD2
:100DD00092E00E94AF0F8093640217C00F2EF6E0DE
:100DE000AF2EB12CF02DC12CD12CE12CF12C00E038
:100DF00010E020E030E040E050E060E070E087EAA2
:100E000092E00E94AF0F8093640284E692E00E9419
:100E10001D0383E003C081E001C082E01F910F91B8
:100E2000FF90EF90DF90CF90BF90AF9008950E9419
:100E30005D048823B1F08091090181FF09C0E8ECCD
:100E4000F0E0808185FFFDCF81E08093CE000895A2
:100E5000E0ECF0E0808185FFFDCF81E08093C6006B
:100E6000089580E0089564E670E087EA92E00E94C9
:100E7000440F8CE792E00E940D0E0895AF92BF924E
:100E8000DF92EF92FF920F931F93CF93DF93EBE0EC
:100E9000F1E020812068208320912B022EBDFC01EF
:100EA0000F2EF1E1FF2EF02DA9E0B1E020EC30E0B3
:100EB00006EC10E00F2EF8ECAF2EB12CF02D6EECFE
:100EC00070E041910DB407FEFDCF5EB54EBD4C9173
:100ED00041FF15C0E501488144232CF5E0906302F1
:100EE000EB01D8804E2D50E04C595D4FEA01D8827D
:100EF000D6E1DE15C0F0E394E092630214C0E9018C
:100F00004881442384F4E0906302E801D8804E2DA8
:100F100050E04C595D4FEA01D882D6E1DE1518F059
:100F2000E394E0926302FA9461F620913D020DB4DD
:100F300007FEFDCF3EB52EBD2091090121FF13C054
:100F40002091C80022230CF5209163023091CE003D
:100F5000E22FF0E0EC59FD4F30832731B0F42F5FE2
:100F60002093630212C02091C000222374F42091C8
:100F700063023091C600E22FF0E0EC59FD4F308360
:100F8000273118F42F5F209363020DB407FEFDCFC5
:100F9000EBE0F1E020812F77208320915D02209308
:100FA0005E02FC01848580935D02DF91CF911F91E9
:100FB0000F91FF90EF90DF90BF90AF9008950F9347
:100FC0001F93CF93DF93EBE0F1E080818068808313
:100FD00080912B028EBD81E090E0A9E0B1E020EC91
:100FE00030E066EC70E0C8ECD0E04EEC50E0FC0184
:100FF000E55DFD4FE0810DB407FEFDCFFEB5EEBD12
:10100000EC91E1FF12C0E881EE230CF51091630230
:10101000FA010081E12FF0E0EC59FD4F0083173118
:10102000B0F41F5F1093630212C0F9011081112305
:1010300074F410916302FB010081E12FF0E0EC59A0
:10104000FD4F0083173118F41F5F10936302019660
:101050008E30910561F6809101020DB407FEFDCF3F
:101060009EB58EBD8091090181FF13C08091C8009B
:1010700088230CF5809163029091CE00E82FF0E078
:10108000EC59FD4F90838731B0F48F5F80936302FA
:1010900012C08091C000882374F480916302909103
:1010A000C600E82FF0E0EC59FD4F9083873118F42B
:1010B0008F5F80936302809100020DB407FEFDCF25
:1010C0009EB58EBD8091090181FF13C08091C8003B
:1010D00088230CF5809163029091CE00E82FF0E018
:1010E000EC59FD4F90838731B0F48F5F809363029A
:1010F00012C08091C000882374F4809163029091A3
:10110000C600E82FF0E0EC59FD4F9083873118F4CA
:101110008F5F80936302809160020DB407FEFDCF64
:101120009EB58EBD8091090181FF13C08091C800DA
:1011300088230CF5809163029091CE00E82FF0E0B7
:10114000EC59FD4F90838731B0F48F5F8093630239
:1011500012C08091C000882374F480916302909142
:10116000C600E82FF0E0EC59FD4F9083873118F46A
:101170008F5F8093630280915F020DB407FEFDCF05
:101180009EB58EBD8091090181FF13C08091C8007A
:1011900088230CF5809163029091CE00E82FF0E057
:1011A000EC59FD4F90838731B0F48F5F80936302D9
:1011B00012C08091C000882374F4809163029091E2
:1011C000C600E82FF0E0EC59FD4F9083873118F40A
:1011D0008F5F8093630280913D020DB407FEFDCFC7
:1011E0009EB58EBD8091090181FF13C08091C8001A
:1011F00088230CF5809163029091CE00E82FF0E0F7
:10120000EC59FD4F90838731B0F48F5F8093630278
:1012100012C08091C000882374F480916302909181
:10122000C600E82FF0E0EC59FD4F9083873118F4A9
:101230008F5F809363020DB407FEFDCFEBE0F1E01A
:1012400080818F778083DF91CF911F910F910895D7
:1012500088E208956F927F928F929F92AF92BF9291
:10126000CF92DF92EF92FF920F931F93CF93DF9372
:1012700045E04A95F1F700009DB59EB521E030E0CC
:10128000E90102C0CC0FDD1F8A95E2F7CC2EC09495
:10129000BC2E0F2EF1E1DF2EF02D80E090E0E9E092
:1012A000F1E020EC30E006EC10E00F2EF8EC6F2EB1
:1012B000712CF02D6EEC70E0ABE0B1E06894AA24E4
:1012C000A4F8408141FF15C0E301488144232CF577
:1012D000F0906302EB01E8804F2D50E04C595D4FD8
:1012E000EA01E882D6E1DF15C0F0F394F0926302E0
:1012F00014C0E9014881442384F4F0906302E801BA
:10130000E8804F2D50E04C595D4FEA01E882D6E16C
:10131000DF1518F0F394F0926302C7E0DCE0219748
:10132000F1F700C00000408141FF15C0E301488192
:1013300044232CF5F0906302EB01E8804F2D50E040
:101340004C595D4FEA01E882D6E1DF15C0F0F39415
:10135000F092630214C0E9014881442384F4F090C0
:101360006302E801E8804F2D50E04C595D4FEA01DF
:10137000E882D6E1DF1518F0F394F09263024C9105
:101380004C214C93AEBC408141FF15C0E301488124
:1013900044232CF5F0906302EB01E8804F2D50E0E0
:1013A0004C595D4FEA01E882D6E1DF15C0F0F394B5
:1013B000F092630214C0E9014881442384F4F09060
:1013C0006302E801E8804F2D50E04C595D4FEA017F
:1013D000E882D6E1DF1518F0F394F09263020DB4C1
:1013E00007FEFDCF1EBC408141FF15C0E3014881CF
:1013F00044232CF5F0906302EB01E8804F2D50E080
:101400004C595D4FEA01E882D6E1DF15C0F0F39454
:10141000F092630214C0E9014881442384F4F090FF
:101420006302E801E8804F2D50E04C595D4FEA011E
:10143000E882D6E1DF1518F0F394F09263020DB460
:1014400007FEFDCF4EB550E0542F44271EBCF08060
:10145000F1FE15C0E301F880FF202CF590906302A7
:10146000EB018880E92CF12CE701CC59DD4F888213
:10147000D6E1D915C0F093949092630214C0E901AB
:10148000F880FF2084F490906302E8018880E92CC2
:10149000F12CE701CC59DD4F8882D6E1D91518F03F
:1014A0009394909263020DB407FEFDCFFEB44F29D2
:1014B000F080F1FE15C0E301F880FF202CF590903C
:1014C0006302EB018880E92CF12CE701CC59DD4F58
:1014D0008882D6E1D915C0F093949092630214C02B
:1014E000E901F880FF2084F490906302E80188808D
:1014F000E92CF12CE701CC59DD4F8882D6E1D915D2
:1015000018F09394909263025695479552954295A0
:101510004F7045275F704527840F951F4C914B29CD
:101520004C93DA9409F0CDCE61E170E00E94AE10E8
:10153000CB01DF91CF911F910F91FF90EF90DF9042
:10154000CF90BF90AF909F908F907F906F900895B5
:1015500081E080934402A198EBE0F1E0808181601A
:1015600080838AEB8A95F1F700C00E94841087E09F
:1015700084B981E58CBD8AEB8A95F1F700C00E94A1
:10158000841082E00E942A099093500280934F02B7
:101590000E94CC0084E00E942A0990934A02809322
:1015A00049020E94CC00EDCF80916302833090F01D
:1015B0001092630261E070E084E692E00E945D04B4
:1015C000882351F01092640284E692E00E941D0389
:1015D00083E0089581E0089582E008952E9A0895A9
:1015E0002E980895A09A0895A0980895EBE0F1E050
:1015F0008081806480830895EBE0F1E080818F7BBF
:1016000080830895089582E083BB85E980930A0171
:1016100084E180930B018091090185FF0E94A80A53
:10162000EBE0F1E08081816080832AEB2A95F1F77D
:1016300000C087E084B981E58CBD8AEB8A95F1F71B
:1016400000C082E00E942A099093500280934F02CA
:1016500084E00E942A0990934A0280934902EBE0B9
:10166000F1E080818E7F80839FEF23EC89E09150B1
:1016700020408040E1F700C0000088E084B984E6A3
:101680008CBDA19A269A989AEAE0F1E08081806464
:10169000808308950E948001C9E0D1E00F2EF0EC14
:1016A000EF2EF12CF02D0F2EF6ECAF2EB12CF02DED
:1016B00008EC10E00F2EFEECCF2ED12CF02D8EB5C5
:1016C000853A09F07DC21EBC8DB58EB50DB407FEFE
:1016D000FDCF2EB530E0888181FF13C0D8018C91F9
:1016E00088230CF580916302F6019081E82FF0E0E9
:1016F000EC59FD4F90838731B0F48F5F8093630284
:1017000012C0D7018C91882374F480916302F50193
:101710009081E82FF0E0EC59FD4F9083873118F469
:101720008F5F809363020DB407FEFDCF8EB5382B1B
:10173000888181FF13C0D8018C9188230CF580919A
:101740006302F6019081E82FF0E0EC59FD4F9083A1
:101750008731B0F48F5F8093630212C0D7018C9100
:10176000882374F480916302F5019081E82FF0E002
:10177000EC59FD4F9083873118F48F5F809363029B
:101780002F5F3F4F3695279580915E0280FF15C0F1
:101790008091590290915A02A0915B02B0915C0233
:1017A000820F931FA11DB11D8093590290935A027D
:1017B000A0935B02B0935C0214C080915902909197
:1017C0005A02A0915B02B0915C02821B930BA109AB
:1017D000B1098093590290935A02A0935B02B0938F
:1017E0005C020DB407FEFDCF2EB530E0888181FF8D
:1017F00013C0D8018C9188230CF580916302F60107
:101800009081E82FF0E0EC59FD4F90838731B0F4E0
:101810008F5F8093630212C0D7018C91882374F488
:1018200080916302F5019081E82FF0E0EC59FD4FC3
:101830009083873118F48F5F809363020DB407FEA5
:10184000FDCF8EB5382B888181FF13C0D8018C91D4
:1018500088230CF580916302F6019081E82FF0E077
:10186000EC59FD4F90838731B0F48F5F8093630212
:1018700012C0D7018C91882374F480916302F50122
:101880009081E82FF0E0EC59FD4F9083873118F4F8
:101890008F5F809363022F5F3F4F3695279580912E
:1018A0005E0281FF15C08091550290915602A09171
:1018B0005702B0915802820F931FA11DB11D809352
:1018C000550290935602A0935702B093580214C049
:1018D0008091550290915602A0915702B091580202
:1018E000821B930BA109B109809355029093560274
:1018F000A0935702B09358020DB407FEFDCF2EB54A
:1019000030E0888181FF13C0D8018C9188230CF5C9
:1019100080916302F6019081E82FF0E0EC59FD4FD1
:1019200090838731B0F48F5F8093630212C0D70138
:101930008C91882374F480916302F5019081E82FE3
:10194000F0E0EC59FD4F9083873118F48F5F80935E
:1019500063020DB407FEFDCF8EB5382B888181FF61
:1019600013C0D8018C9188230CF580916302F60195
:101970009081E82FF0E0EC59FD4F90838731B0F46F
:101980008F5F8093630212C0D7018C91882374F417
:1019900080916302F5019081E82FF0E0EC59FD4F52
:1019A0009083873118F48F5F809363022F5F3F4FDE
:1019B0003695279580915E0282FF15C08091510275
:1019C00090915202A0915302B0915402821B930B4A
:1019D000A109B1098093510290935202A09353023E
:1019E000B093540214C08091510290915202A09180
:1019F0005302B0915402820F931FA11DB11D809319
:101A0000510290935202A0935302B09354020DB42A
:101A100007FEFDCF8EB58CE792E00E94050F88236C
:101A200091F18CE792E00E940B0F8823C1F08CE7C4
:101A300092E00E94080F882339F08CE792E00E9420
:101A4000030F0E943E07B9C08CE792E00E94DA0EB5
:101A50008CE792E00E94030F0E943E07AEC08CE725
:101A600092E00E94080F882339F08CE792E00E94F0
:101A7000DE0E0E94DF07A1C08CE792E00E94010FFA
:101A80000E943E079AC087EA92E00E948D0F882349
:101A900029F00E94F00A0E94DF078FC087EA92E0D7
:101AA0000E946E0FDC0151962D913C915297232B91
:101AB00019F40E943E077AC0288121FF13C0F80163
:101AC000208122230CF520916302D6013C91E22F64
:101AD000F0E0EC59FD4F30832731B0F42F5F2093B5
:101AE000630212C0F7012081222374F42091630263
:101AF000D5013C91E22FF0E0EC59FD4F30832731C6
:101B000018F42F5F20936302DC015196ED91FC9154
:101B10005297EE0FFF1FE155FD4F0190F081E02D30
:101B2000199544C087EA92E00E94600F4C01FC01C5
:101B300081899289892B09F440C0888181FF13C073
:101B4000D8018C9188230CF580916302F601908175
:101B5000E82FF0E0EC59FD4F90838731B0F48F5FB0
:101B60008093630212C0D7018C91882374F4809112
:101B70006302F5019081E82FF0E0EC59FD4F90836E
:101B8000873118F48F5F8093630287EA92E00E94A6
:101B90006E0FD4015196ED91FC915297EE0FFF1FFD
:101BA000E155FD4F0190F081E02D199587EA92E013
:101BB0000E948D0F882309F4B5CF0E94CC007FCD01
:101BC000888181FF15C0F801808188230CF077CDD2
:101BD00080916302D6019C91E82FF0E0EC59FD4F13
:101BE0009083873108F06BCD8F5F8093630267CD60
:101BF000F701808188230CF062CD80916302D501CA
:101C00009C91E82FF0E0EC59FD4F9083873108F06C
:101C100056CD8F5F8093630252CDFC0110821182FA
:101C20008FEF8383148208958F929F92AF92BF9219
:101C3000CF92DF92EF92FF920F931F93CF93DF9398
:101C4000EC01862E942E59018C818130E1F4AB8118
:101C5000B0E0CD01880F991F880F991FA80FB91FF9
:101C6000AD5FBD4FED91FC911197408121E030E0D7
:101C7000C90112960C9002C0880F991F0A94E2F7CE
:101C80008095842380830E9428099BEA899F812D67
:101C900011248695881608F080C08B8281E08883A5
:101CA000892D8370292D30E093FA992790F99C8330
:101CB00094FA992790F99A8390E0692D647070E006
:101CC00042E050E0481B590BDB0102C0B595A795D7
:101CD0004A95E2F7A98BFB8AEA8ADD8ACC8A2095AD
:101CE00030952470332745E050E0481B590B02C063
:101CF000359527954A95E2F72CA3FEA2EDA2D8A62A
:101D0000CFA22CE0AE014B5F5F4FFA01322F119250
:101D10003A95E9F77E01A8E1EA0EF11CF70111926C
:101D20002A95E9F79C01220F331F220F331FF5017B
:101D300080819181A281B381420F531FFA01808378
:101D40009183A283B383D8014D915D916D917C9174
:101D5000F701E20FF31F40835183628373838C8109
:101D60008823D9F08B8190E0DC01AA0FBB1FAA0F5A
:101D7000BB1FA80FB91FAD5FBD4FED91FC9111972F
:101D8000408121E030E0C90112960C9002C0880F1A
:101D9000991F0A94E2F7842B8083DF91CF911F91E2
:101DA0000F91FF90EF90DF90CF90BF90AF909F90FA
:101DB0008F90089521E0FC0121830895FC01108299
:101DC000118284818130E1F4A381B0E0CD01880FDC
:101DD000991F880F991FA80FB91FAD5FBD4FED91D7
:101DE000FC911197408121E030E0C90112960C90DE
:101DF00002C0880F991F0A94E2F78095842380839C
:101E000008950596089548960895FC0180810895E7
:101E1000FC0181810895DC0112962C9112972223F6
:101E2000D1F01396EC91F0E0CF01880F991F880F45
:101E3000991FE80FF91FED5FFD4FA081B1818C91D3
:101E400090E0028002C0959587950A94E2F7B1E090
:101E50008B2781700895DC011396EC91F0E0CF019F
:101E6000880F991F880F991FE80FF91FED5FFD4F2D
:101E7000A081B1818C9190E0028002C095958795F8
:101E80000A94E2F7817008950F931F93CF93DF9325
:101E9000EC018B0183E1282F269FC001279F900D25
:101EA00011240E94DA109F838E831B821A821D8266
:101EB0001C8219830883DF91CF911F910F910895A0
:101EC000FC012481358143E1429FC001439F900D75
:101ED000112426813781820F931F0895FC012481EC
:101EE000358143E1429FC001439F900D11244681FB
:101EF0005781840F951F2F5F3F4F35832483408187
:101F000051812417350710F0158214820895FC01C1
:101F100013821282158214820895FC0181E04281AD
:101F20005381248135814217530709F080E00895D9
:101F3000FC012281338184819581281B390B2F3F3D
:101F40008FEF380751F0408151814150510981E0B4
:101F50002417350719F080E0089581E008954F9225
:101F60005F926F927F928F929F92AF92BF92CF9229
:101F7000DF92EF92FF920F931F93CF93DF93EC01C9
:101F80004B013A0129010E94980F811181C0F4018F
:101F900040815181628173812A813B81A3E1A29FAB
:101FA000C001A39F900D1124EE81FF81E80FF91F5E
:101FB0004083518362837383F30140815181628145
:101FC00073812A813B81A29FC001A39F900D1124A0
:101FD0002E813F81F901E80FF91F44835583668301
:101FE0007783F20140815181628173812A813B8133
:101FF000A29FC001A39F900D1124EE81FF81E80FE5
:10200000F91F4087518762877387F80140812A81D1
:102010003B81A29FC001A39F900D1124EE81FF81FF
:10202000E80FF91F44872A813B81A29FC001A39F2B
:10203000900D1124EE81FF81E80FF91FF686E586E9
:102040002A813B81A29FC001A39F900D1124EE81A4
:10205000FF81E80FF91FD08AC7862A813B81A29FA2
:10206000C001A39F900D1124EE81FF81E80FF91F9D
:10207000B28AA18A8A819B8101969B838A83288167
:1020800039818217930730F01B821A8281E003C0E6
:1020900080E001C081E0DF91CF911F910F91FF900F
:1020A000EF90DF90CF90BF90AF909F908F907F90F8
:1020B0006F905F904F900895CF93DF93EC010E9453
:1020C000980F811119C08A819B8143E1489F90013B
:1020D000499F300D11244E815F81240F351F0196D9
:1020E0009B838A83488159818417950740F01B821E
:1020F0001A82822F932F05C080E090E002C0822FC9
:10210000932FDF91CF9108958091090181FF13C032
:102110008091C80088230CF5809163029091CE00D5
:10212000E82FF0E0EC59FD4F90838731B0F48F5FDA
:102130008093630208958091C000882374F4809195
:1021400063029091C600E82FF0E0EC59FD4F9083B8
:10215000873118F48F5F80936302089597FB072EF1
:1021600016F4009407D077FD09D00E94C61007FC32
:1021700005D03EF4909581959F4F08957095619597
:102180007F4F08950790F691E02D1994AA1BBB1B71
:1021900051E107C0AA1FBB1FA617B70710F0A61B67
:1021A000B70B881F991F5A95A9F780959095BC0188
:1021B000CD010895CF93DF938230910510F482E032
:1021C00090E0E091DB02F091DC0220E030E0A0E062
:1021D000B0E0309739F14081518148175907B8F084
:1021E0004817590771F482819381109729F013964B
:1021F0009C938E9312972CC09093DC028093DB0209
:1022000027C02115310531F04217530718F0A901F5
:10221000DB0101C0EF019A01BD01DF010280F38102
:10222000E02DD7CF21153105F9F0281B390B2430CB
:10223000310580F48A819B816115710521F0FB01D4
:102240009383828304C09093DC028093DB02FE01BF
:10225000329644C0FE01E20FF31F81939193225006
:102260003109398328833AC02091D9023091DA02AA
:10227000232B41F420914002309141023093DA0245
:102280002093D90220913E0230913F022115310561
:1022900041F42DB73EB74091420250914302241BB6
:1022A000350BE091D902F091DA02E217F307A0F4BE
:1022B0002E1B3F0B2817390778F0AC014E5F5F4F9C
:1022C0002417350748F04E0F5F1F5093DA024093F2
:1022D000D9028193919302C0E0E0F0E0CF01DF9159
:1022E000CF910895CF93DF93009709F487C0FC0145
:1022F000329713821282C091DB02D091DC022097C8
:1023000081F420813181280F391F8091D902909169
:10231000DA028217930779F5F093DA02E093D90293
:102320006DC0DE0120E030E0AE17BF0750F412961A
:102330004D915C9113979D014115510509F1DA0109
:10234000F3CFB383A28340815181840F951F8A17F5
:102350009B0771F48D919C911197840F951F0296A4
:102360009183808312968D919C911397938382839E
:102370002115310529F4F093DC02E093DB023EC025
:10238000D9011396FC93EE9312974D915D91A40F92
:10239000B51FEA17FB0779F480819181840F951F9F
:1023A0000296D90111969C938E9382819381139604
:1023B0009C938E931297E0E0F0E08A819B810097D6
:1023C00019F0FE01EC01F9CFCE0102962881398186
:1023D000820F931F2091D9023091DA022817390712
:1023E00069F4309729F41092DC021092DB0202C0EB
:1023F00013821282D093DA02C093D902DF91CF9177
:062400000895F894FFCFDF
:1024060001E0012C00052D0032000533002C0003ED
:102416002D00000103010100010401010001050175
:102426000100010601012300042400A50242F00078
:102436000242F0000242F000E02F802F805A000096
:04244600DD02800033
:00000001FF
